:020000040800F2
:10000000D0070020910200080524000815200008F0
:1000100001240008890400081928000800000000D5
:100020000000000000000000000000002D25000876
:100030008D04000800000000092400083125000894
:10004000AB020008AB020008AB020008AB020008DC
:10005000AB020008AB020008AB020008AB020008CC
:10006000AB020008AB020008AB020008AB020008BC
:10007000AB020008AB020008AB020008AB020008AC
:10008000AB020008AB020008AB020008AB0200089C
:10009000AB020008AB020008AB020008AB0200088C
:1000A000AB020008AB020008AB020008AB0200087C
:1000B000AB020008AB020008AB020008AB0200086C
:1000C000AB020008AB020008AB020008AB0200085C
:1000D000AB020008AB020008AB020008AB0200084C
:1000E000AB020008AB020008AB020008AB0200083C
:1000F000AB020008AB020008AB020008AB0200082C
:10010000AB020008AB020008AB020008AB0200081B
:10011000AB020008AB020008AB020008AB0200080B
:10012000AB020008AB020008AB020008AB020008FB
:10013000AB0200080000000000000000AB02000855
:10014000AB020008AB020008AB020008AB020008DB
:10015000AB020008AB020008AB020008AB020008CB
:10016000AB020008AB020008AB020008AB020008BB
:10017000AB020008AB020008AB0200080000000060
:1001800000000000AB0200080000000000000000BA
:10019000AB0200080000000000000000AB020008F5
:1001A000000000000000000000000000AB0200089A
:1001B000AB020008AB020008AB020008AB0200086B
:1001C000AB02000800F002F800F052F814A696E81E
:1001D000000CB244B344DA4501D100F049F8BAE862
:1001E0000F000FA696E83000A5EB040504EB060708
:1001F000AAEB0704A7F101074FEA15154FEA3414DB
:10020000A4F10104AC4201D300F032F813F0010F65
:1002100018BFFB1A43F0010300F001F8DBE71847B1
:100220009C280000BC280000103A24BF78C878C180
:10023000FAD8520724BF30C830C144BF04680C60EC
:1002400070470000704700000023002400250026AE
:10025000103A28BF78C1FBD8520728BF30C148BF29
:100260000B6070471FB502F00FFC1FBD10B510BD2D
:1002700000F0D0F81146FFF7F5FF02F0CFFA00F0DA
:10028000EEF803B4FFF7F2FF03BC00F0F5F800004E
:100290000948804709480047FEE7FEE7FEE7FEE71A
:1002A000FEE7FEE7FEE7FEE7FEE7FEE70448054956
:1002B000054A064B70470000D9250008C501000813
:1002C000D0010020D0070020D0030020D003002060
:1002D00053EA020C00F069802DE9F04B4FF0000664
:1002E000002B1FBFB3FA83F503FA05F424FA05F6D1
:1002F0005E4012BF1643B2FA82F502FA05F4C5F168
:1003000020051EBF22FA05FC44EA0C04203556EAFB
:10031000044C4FEA144418BF641C4FF000084FF01F
:100320000009904271EB030C39D3002919BFB1FACF
:1003300081F701FA07F6B0FA80F700FA07F6C7F17D
:1003400020071EBF20FA07FC46EA0C062037B6FB42
:10035000F4FCA7EB0507103F07F01F0BCBF12006BD
:100360002CFA06F60CFA0BFB44BFB3460026202FEE
:10037000A4BF5E464FF0000B5BEA060C08BF4FF0CF
:10038000010B19EB0B0948EB0608ABFB027C06FBE3
:1003900002CC0BFB03CCC01B71EB0C01C1E70B467D
:1003A000024641464846BDE8F08B13B5084318BFE6
:1003B0004FF0FF300146AFF30080BDE81C407047AE
:1003C0004FF0000200B5134694469646203922BFEE
:1003D000A0E80C50A0E80C50B1F12001BFF4F7AF39
:1003E000090728BFA0E80C5048BF0CC05DF804EB1B
:1003F000890028BF40F8042B08BF704748BF20F889
:10040000022B11F0804F18BF00F8012B7047704786
:1004100070477047754600F02BF8AE4605006946F8
:10042000534620F00700854618B020B5FFF73EFF81
:10043000BDE820404FF000064FF000074FF00008E5
:100440004FF0000BAC46ACE8C009ACE8C009ACE822
:10045000C009ACE8C00921F007018D46704710B50E
:100460000446AFF300802046BDE81040FFF709BF07
:10047000004870471000002001491820ABBEFEE77D
:100480002600020070470000FEE7000070470000F1
:10049000B0B5044600F0E6F8054640F20000C2F2AE
:1004A00000000078611C18BF044400BF00F0DAF8B7
:1004B000401BA042FAD3B0BD2DE9F04F83B000F14C
:1004C000200200F13E4741F60005009207F1FF7758
:1004D000C4F2020507224FEAB726A84208BF062247
:1004E00000254FF000084FF00009062E38BF4FEAF4
:1004F000B72201920AE000BF09F1010908F10208E0
:10050000B9F1100F05F1040500F0A2800F68012277
:1005100002FA09FE17EA0E0AEED0D1F804C003224F
:100520000CF003077E1E02FA08F4012E6FEA040B9A
:1005300012D88468CE6804EA0B0406FA08F634433D
:100540008460446824EA0E06CCF3001404FA09F42B
:100550002643466004E000BF032F01D103271EE0BD
:10056000C6688C6806EA0B0604FA08F42643022FD4
:10057000C66014D16FF00302009E02EA590756F8D4
:1005800007C005F01C040F220B69A2402CEA0202EE
:10059000A3401A43F251D1F804C00CF003070268DB
:1005A00007FA08F302EA0B021A431CF4403F026008
:1005B000A2D0002243F644030292C4F202031A6856
:1005C00043F6004442F480421A601A68C4F20104FF
:1005D00002F480420292029A29F003024FF6084C7C
:1005E0002244CFF6FF7C52F80C3005F00C070F26A2
:1005F000BE40B343019E06FA07F73B4342F80C3076
:10060000A2684B6842EA0A0743F60C4CDE0258BF68
:1006100022EA0A07A760C4F2010CDCF800209E025F
:1006200042EA0A0758BF22EA0A07CCF8007062685B
:100630009E0342EA0A0758BF22EA0A076760226857
:10064000DB0342EA0A0758BF22EA0A07276053E79A
:1006500003B0BDE8F08F0000002A08BF09048161E3
:100660007047000040F2C810C2F2000000687047F6
:10067000002804BF01207047F0B581B0044690F80F
:100680003D0028B9002084F83C00204600F030FAF4
:10069000242084F83D002068016821F001010160F8
:1006A000016841F400410160016821F400410160EA
:1006B00000F0B2FB636848F2A16CC0F2010C40F696
:1006C0000011C0F23D0163453CBF48F28041C0F2D9
:1006D0001E01884202D2012001B0F0BD4DF68361B7
:1006E000C4F21B31A0FB01122168970CD1F804E081
:1006F0004FF496762EF03F0545EA92454D607743DC
:1007000048F638160D6AC0F24106A7FB067625F0BA
:100710003F07634538BF960C721C3A430A62CA69A8
:1007200048F2A0664CF6FF77C0F20106B34222EA17
:1007300007020BD801385B00B0FBF3F001306FF318
:100740001F30042898BF04201BE000BFA7680138B1
:1007500057B119277B43B0FBF3F001306FF31F3023
:1007600070B100F5804007E003EB4303B0FBF3F00A
:1007700001306FF31F3018B100F5004001E000BFF9
:1007800001201043C8610868D4E9072320F0C000A5
:10079000104318430860886848F2FF3204F10C07E0
:1007A00090438CCF18431043A6698860C86820F036
:1007B000FF0038433043C860086840F0010008601B
:1007C00000202021206484F83D10206384F83E003E
:1007D00001B0F0BD2DE9F04383B01F4616468946AF
:1007E0000446FFF73FFF94F83D10202924D1054629
:1007F000206800BF816989071AD5FFF733FF411BC5
:1008000020681A29F6D381698907F3D500202021B1
:10081000206384F83D1084F83E00216C41F02001F3
:10082000216484F83C00022003B0BDE8F08300BFDF
:1008300094F83C10012903D1022003B0BDE8F083F5
:10084000012184F83C100168C90703D1016841F017
:1008500001010160016840F2040821F400610160B7
:10086000222184F83D10102184F83E1000212164DB
:1008700066626785618DC0F201082185A8F50031A7
:100880000439E162E16A02680A9F42F4806211F56C
:10089000803F026018BF012942D1016841F4807194
:1008A000016020464FF0011100223B46009501F007
:1008B000DBFB58B120680068C00544BF4FF40070EE
:1008C0002064012003B0BDE8F08300BF2069B0F5CB
:1008D000804F2BD149F00100C0B221683A4608612F
:1008E000A8F1020120462B4601F0A4FC0028E8D123
:1008F000208D00285AD002284ED001286ED12168C0
:100900000A6822F480620A60002202924A69029216
:100910008A690292029A0A6842F400720A6078E0D8
:100920000829BAD0216B1129B7D0BAE7062000EA0E
:10093000D916206806F1F001016108F10401204692
:100940003A462B4601F076FC0028BAD120685FFABF
:1009500089F10161A8F1020120463A462B4601F0D7
:1009600069FC0028ADD10020029020680022416976
:100970003B460291816902910299016841F48071BC
:10098000016020464FF00111009501F06DFB002839
:1009900090D146F0F100A0E721680A6822F4806255
:1009A0000A600A6842F400621CE000BF0020029066
:1009B000206841690291816902910299016841F4BC
:1009C00000710160202084F83D00002084F83E0082
:1009D00084F83C0003B0BDE8F08300BF21680A68DA
:1009E00042F480620A60002202924A690292896996
:1009F000029102990DE000BF10690870606A218DB4
:100A000001306062481E2085618D013961850104D5
:100A1000D8D080B203280FD802284AD001282DD17F
:100A2000204639462A4601F071FC00287FF449AF80
:100A30002068616A0069E0E7204639462A4601F0ED
:100A400065FC00287FF43DAF2068616A006908708A
:100A5000606A2268411C208D616201382085638DA7
:100A6000013B638553695B07D1D580B20328C3D1AD
:100A7000106820F480601060BEE700BF2046414649
:100A800000223B46009501F0EFFA00287FF419AFF1
:100A90002068616A026822F480620260006908705E
:100AA000606A218D01306062481E2085608D0138AA
:100AB00060852046414600223B46009501F0D4FA6D
:100AC00000287FF4FEAE2068616A026842F400727A
:100AD000026000690870606A2268411C6162218DB1
:100AE00001392185618D013961851169417085E781
:100AF000B0B586B045F200410068C4F200010024A0
:100B000088420594CDE903440294019402D006B0D2
:100B1000B0BD00BF43F630050094C4F2020528685A
:100B200040F002002860286800F002000090009861
:100B3000C02001901220CDE902040320049004207B
:100B4000059001F5D83001A9FFF7B6FC009428699B
:100B500040F400102861286900F40010009000980B
:100B600006B0B0BD40F2000040F2C811C2F2000071
:100B7000C2F2000100780A68104408607047000063
:100B800080B543F60040C4F20200016841F40071F0
:100B90000160016841F480610160016841F4807185
:100BA0000160032000F076F8002000F005F800F066
:100BB00027F8002080BD000070B540F20006C2F2A8
:100BC000000640F208013278C2F200014FF47A7355
:100BD0000968B3FBF2F20446B1FBF2F1084600F0FB
:100BE000B5FE0F2C4FF0010508D838B94FF0FF3093
:100BF00021460022002500F021F87460284670BDCF
:100C000082B0002043F640010190C4F202014A681C
:100C100042F480424A604A6802F480420192019A9A
:100C20000090086840F080500860086800F080502C
:100C300000900098072002B000F02CB810B54EF6D6
:100C40000C5CCEF2000CDCF80030C3F3022E8EF008
:100C50000704042C28BF0424BEF103034FF0FF3E19
:100C60000EFA04F438BF0023A14399400EFA03F3AF
:100C70009A43114300F00F0200F160430901043A66
:100C800003F564436244002848BF02F10C03197065
:100C900010BD00004EF60C51CEF200010A684FF66E
:100CA000FF031A4060F30A2242F0806040F0FD70BA
:100CB00008607047002804BF012070472DE9F0410B
:100CC00043F60808C4F202080446D8F8F8030D46B3
:100CD00000F00F00814207D988F8F853D8F8F803DC
:100CE00000F00F00A84277D12068810717D541078F
:100CF00005D5D8F8001041F4E051C8F800100107FC
:100D000005D5D8F8001041F46041C8F80010D8F8B3
:100D10000010A26821F0F0011143C8F80010C007CC
:100D200040D1D8F8F80300F00F00854207D288F8C8
:100D3000F853D8F8F80300F00F00A8424CD120680F
:100D4000410707D5D8F80010E26821F4E0511143BB
:100D5000C8F80010000708D5D8F80000216920F471
:100D6000604040EAC100C8F8000000F07DF8D8F803
:100D7000001042F6A222C1F30311C0F60002515C3A
:100D800040F2080220FA01F140F20400C2F2000031
:100D90000068C2F200021160FFF70EFF0020BDE8FC
:100DA000F08100BF6068811E022907D258F8081C34
:100DB00089015CBF0120BDE8F08111E0012807D165
:100DC00058F8081C89035CBF0120BDE8F08107E0EA
:100DD00058F8081C890703D40120BDE8F08100BF42
:100DE000D8F8001021F003010843C8F80000FFF70D
:100DF00039FC064641F28837D8F80000616800F0F7
:100E00000C00B0EB810F8CD0FFF72CFC801BB8429C
:100E1000F2D90320BDE8F08140F2080043F6080152
:100E2000C2F20000C4F202010068096842F6B22270
:100E3000C1F38221C0F60002515CC8407047000037
:100E400040F2080043F60801C2F20000C4F20201B9
:100E50000068096842F6B222C1F34231C0F60002CE
:100E6000515CC8407047000010B543F60404C4F25A
:100E700002046068C0F3810142F20040C0F2F40055
:100E8000DFE801F04202081841F20020C0F27A00C7
:100E900010BD00BF216801F03F02216823684902AC
:100EA000C3F3881116D4A1FB00010023FFF710FA49
:100EB00017E000BF216801F03F0221682368490262
:100EC000C3F3881114D4A1FB00010023FFF700FA3B
:100ED00015E000BF41F20020C0F27A004843B0FBA9
:100EE000F2F021680222C1F3014102EB410109E065
:100EF00041F20020C0F27A004843B0FBF2F02168D2
:100F0000C1F30271B0FBF1F010BD0000002804BF76
:100F1000012070472DE9F04182B00446007843F685
:100F20000006C007C4F202060CD0B06800F00C0046
:100F3000042840F089803068800303D56068002869
:100F400000F050812078800723D5B06810F00C0F96
:100F500011D0B06800F00C00082802D1706840027F
:100F600009D5B06800F00C000C2840F09F80706834
:100F7000400200F19B803068800703D5E0680128BB
:100F800040F030813068216920F0F80040EAC1006B
:100F900030602078000713D4207840072AD4A56950
:100FA000002D00F01A81B06800F00C00082840F015
:100FB000AB80012D40F0E880012002B0BDE8F08157
:100FC0006069002840F20000C4F2472000F08880E9
:100FD0000121C0F8801EFFF745FB0546706F8007B2
:100FE000DAD4FFF73FFB401B0228F7D9032002B0F9
:100FF000BDE8F081306C5FEAC0080AD4002001909F
:10100000306C40F080503064306C00F080500190C3
:10101000019847F20007C4F200073868C00537D4CA
:10102000386840F480703860FFF71CFB054600BF4D
:101030003868C0052CD4FFF715FB401B0228F7D9F0
:10104000032002B0BDE8F081B06800F00C00082871
:1010500003D1706840023FF56EAFB06800F00C003D
:101060000C2803D1706840023FF565AF61683068B5
:10107000B1F5803F07D0B1F5A02F40F0CB8040F410
:1010800080203060306840F480303060CBE000BFBA
:10109000A168306F012905D0052957D140F004001F
:1010A0003067306F40F00100306759E0E068002899
:1010B00000F09C800020C4F2472001210160FFF76E
:1010C000D1FA0546306880073FF55CAFFFF7CAFAF2
:1010D000401B02284FF00300F4D902B0BDE8F081B4
:1010E0000021C0F8801EFFF7BDFA0546706F80072B
:1010F0007FF552AFFFF7B6FA401B0228F6D903205E
:1011000002B0BDE8F08100BF0027C4F247270020ED
:101110003866FFF7A7FA022D05460BD1306880012B
:1011200040F19280FFF79EFA401B02284FF0030027
:10113000F4D9D2E7306880014FD5FFF793FA401B0E
:1011400002284FF00300F5D9C7E700BF20F00100E7
:101150003067306F002920F00400306700F098807D
:10116000FFF780FA054641F2883700BF306F8007ED
:1011700000F1A080FFF776FA401BB842F6D90320B1
:1011800002B0BDE8F08100BF7068E16900F4800240
:101190008A4227D1216A00F03F028A4222D147F6D3
:1011A000C071626A0140B1EB821F1BD1A16A4FF688
:1011B000FF73C903994300F44032A1F580318A429C
:1011C00010D1E16A00F07062B2EB016F0AD1216BBD
:1011D00000F0E040B0EB017F04D1002002B0BDE898
:1011E000F08100BF012002B0BDE8F0810020C4F210
:1011F000472000210160FFF735FA05463068800777
:101200007FF5C7AEFFF72EFA401B02284FF0030010
:10121000F4D962E720F4803030603068002920F48F
:101220008020306050D0FFF71DFA054630688003FB
:101230003FF588AEFFF716FA401B6428F6D9032065
:1012400002B0BDE8F08100BF04F11C052FCD246B76
:10125000084340EA8210D9034FF6FF729143A1F58B
:10126000803140EA0560084340EA04707060012064
:101270003866FFF7F7F9044630688001ADD4FFF710
:10128000F1F9001B02284FF00300F5D925E700BF54
:10129000FFF7E8F9054641F2883700BF306F800755
:1012A00008D5FFF7DFF9401BB8424FF00300F5D92E
:1012B00013E700BFB8F1000F3FF571AE306C20F0BE
:1012C000805030646BE600BFFFF7CCF9054600BFE5
:1012D000306880037FF536AEFFF7C4F9401B642801
:1012E0004FF00300F4D9F8E670B528B1416A29B18E
:1012F00000210161142106E0012070BD4168B1F5B3
:10130000827F02D01C21002242500026866290F883
:10131000511029B980F85060054600F03DF8284684
:10132000022180F8511090E82E0002F482720C68BD
:1013300003F4044324F040040C601A4405F40063F1
:1013400005691A4405F0020345691A4405F00103D2
:101350008569C4691A4405F400731A4404F038031B
:10136000046A1A4404F08003846A1A4304F40053A4
:101370001A430A60436A042202EA154203F010038A
:101380001A444A60CA6922F40062CA6101214665B2
:1013900080F85110304670BD80B586B043F2000130
:1013A0000068C4F20101002288420592CDE90322BF
:1013B0000292019202D006B080BD00BF43F6300019
:1013C0000092C4F20200436943F4805343614369CD
:1013D00003F480530093009B0092036843F00103E1
:1013E0000360006800F0010000900098E020019088
:1013F0000220CDE90202032004900520059001F5AA
:10140000504001A9FFF758F806B080BD2DE9F04122
:1014100082B0044690F85100012819D160681D4639
:1014200017460E46B0F5827F01D1A068A0B1FFF744
:1014300019F98046002E4FF0010018BF002F03D18C
:1014400002B0BDE8F08100BF94F85000012811D12E
:10145000022002B0BDE8F081042084F8510020464B
:10146000314632463B46009500F0D0F802B0BDE868
:10147000F08100BF012084F850000420002184F88E
:1014800051006165A663A787E7872163A186E1868E
:10149000A2682068B2F5004F2164616438D0016809
:1014A000490640D5E168E08F002944D000287BD070
:1014B000681C0CD11BE000BFC068A16B21F8020BB7
:1014C000A163E08F0138E087E08F00286CD02068AE
:1014D0008168C907F0D1FFF7C5F8A0EB0800A84262
:1014E000F2D342E0FFF7BEF8E08F00285CD020681E
:1014F0008168C907F6D0C068A16B21F8020BA1630F
:10150000E08F0138E087E08F0028F0D14CE000BF89
:10151000016821F040010160016821F4804101600F
:1015200001684906BED4016841F040010160E168EC
:10153000E08F0029BAD1B8B3681C0CD124E000BFF9
:10154000007BA16B0870A06B0130A063E08F0138B5
:10155000E087E08F40B320688168C907F0D1FFF7CA
:1015600081F8A0EB0800A842F3D3012084F85100D1
:10157000002084F85000032002B0BDE8F08100BFD5
:10158000FFF770F8E08F78B120688168C907F7D05D
:10159000007BA16B0870A06B0130A063E08F013865
:1015A000E087E08F0028EFD16068B0F5827F0ED130
:1015B000A068B0F5004F02D0B0F5806F0AD1216865
:1015C000B0F5806F0A6822F040020A6002D120461E
:1015D000012101E02046802100222B46CDF8008029
:1015E00000F014FF28B1606D40F0200060652020FD
:1015F0006065012084F85100002084F85000606D7F
:10160000002818BF012002B0BDE8F0812DE9F043A9
:1016100083B01E4615460F460446FFF723F894F89C
:1016200051108146012909D1002F4FF0010018BF48
:10163000002D0FD103B0BDE8F08300BF6068B0F5A6
:10164000827F0DD104294FF00200F3D1A168002957
:10165000EAD0EFE7002EEDD094F85000012803D136
:10166000022003B0BDE8F083012084F8500094F814
:101670005100002104281CBF052084F85100616539
:10168000A563E687A6872763E6862068A686216489
:1016900061640168490603D4016841F040010160BA
:1016A0006168731EE268B1FA81F1B3FA83F3DDF881
:1016B000288049095B09B2F5006F41EA030165D151
:1016C00031B137F8021BC1602763E08E0138E08634
:1016D000012518F1010032D102E000BFFEF7C2FF80
:1016E000E08E18B9E08F002800F0B880206881688B
:1016F00089070CD5E18E51B1012D08D1216B002550
:1017000031F8022BC2602163E18E0139E1868168E4
:10171000C907E3D0E18F0029E0D0C068A16B0125A3
:1017200021F8020BA163E08F0138E087D6E700BF04
:10173000FEF798FFA0EB0900404580F0A580E08E01
:1017400018B9E08F002800F0898020688168890737
:101750000CD5E18E51B1012D08D1216B002531F856
:10176000022BC2602163E18E0139E1868168C907DD
:10177000DED0E18F0029DBD0C068A16B012521F804
:10178000020BA163E08F0138E087D1E739B13978E6
:101790000173206B01302063E08E0138E086012563
:1017A00018F1010032D101E0FEF75CFFE08E10B9C4
:1017B000E08F002852D02068816889070ED5E18E1D
:1017C00061B1012D0AD1216B002509780173216BCC
:1017D000206801312163E18E0139E1868168C90702
:1017E000E2D0E18F0029DFD0C068A16B012508702D
:1017F000A06B0130A063E08F0138E087D4E700BF21
:10180000FEF730FFA0EB090040453DD2E08E08B95D
:10181000E08F18B32068816889070ED5E18E61B129
:10182000012D0AD1216B002509780173216B2068F5
:1018300001312163E18E0139E1868168C907DFD07A
:10184000E18F0029DCD0C068A16B01250870A06B76
:101850000130A063E08F0138E087D1E72046022104
:1018600001224346CDF8009000F0D0FDB0B1606D8C
:1018700040F02000606520206065002084F8500062
:10188000012003B0BDE8F083012084F8510000205E
:1018900084F85000032003B0BDE8F08340F2080054
:1018A000C2F20000006849F68171C1F25E61A0FBDE
:1018B0000101480D4FF47A71484302906068B0F519
:1018C000827F0BD12046802100224346CDF8009034
:1018D00000F09CFD0028CAD121E000BF0298F0B1C1
:1018E00002980138029020688168090617D502998C
:1018F000A9B1029901390291816809060FD50299AF
:1019000069B10299013902918168090607D50299E6
:1019100029B102990139029180680006DED4A068DD
:1019200038B9002001902068C16801918068019059
:101930000198012084F85100002084F85000606D67
:10194000002818BF012003B0BDE8F083411E00202D
:10195000B0EB116F1CBF012070474EF21002CEF2A7
:10196000000251604EF62351CEF20001F0230B70BD
:10197000072190601160704790F83C20012A4FF0D9
:10198000020254D010B580F83D200268D2F804E07D
:10199000D2F808C00C682EF07003234341F2FF74A4
:1019A000C4F20004A24253600EDC40F2FF73C4F2A2
:1019B00000039A4216DCB2F1804F2BD040F2004374
:1019C000C4F2000324E000BF40F2FF33C4F201037D
:1019D0009A4213DC41F60003C4F200039A4219D084
:1019E000002313E040F60003C4F200039A4211D032
:1019F00040F60043C4F200030AE000BF44F20003D3
:101A0000C4F201039A4205D040F20043C4F201033C
:101A10009A4204D149682CF0800319439160012156
:101A2000002280F83D1080F83C20BDE810401046B0
:101A300070470000002804BF0120704710B504461D
:101A400090F83D0028B9002084F83C00204600F0C2
:101A50001FF8022084F83D002068211D00F0C6FD1B
:101A6000012084F8460084F83E0084F83F0084F8A2
:101A7000400084F8410084F8420084F8430084F870
:101A8000440084F8450084F83D00002010BD0000AB
:101A9000006840F20041C4F20001884218BF70475C
:101AA00081B00020009043F64000C4F202000168BB
:101AB00041F002010160006800F00200009000980F
:101AC00001B0704790F83C20012A4FF002026CD020
:101AD00080B580F83D20D0F800C04FF67772DCF872
:101AE000083023EA0202CCF808200B684F2B29DCCF
:101AF0001F2B45DD202B46D0302B44D0402B40F00F
:101B0000AF80D1F804E0C968DCF82030DCF8202090
:101B100022F00102CCF82020DCF8182022F0F0029C
:101B200042EA011123F00A0242EA0E02CCF8181030
:101B3000CCF82020DCF8081041F0470121F03001FA
:101B400028E000BF6F2B33DDB3F5005F74D0B3F531
:101B5000805F21D0702B40F08380D1E901E3C96818
:101B6000DCF8082043EA0E0322F47F4243EA012115
:101B70001143CCF80810DCF8081041F0770109E0B7
:101B80000BB1102B6CD1DCF8081021F07001194357
:101B900041F00701CCF808100022012180F83D1027
:101BA000002180F83C10BDE880401046704700BF1F
:101BB000502B21D0602B53D1D1F804E0C968DCF858
:101BC0002030DCF8202022F01002CCF82020DCF8B5
:101BD000182022F4704242EA013123F0A00242EAC6
:101BE0000E12CCF81810CCF82020DCF8081041F0C8
:101BF000670121F01001CDE7D1F804E0C968DCF8F5
:101C00002030DCF8202022F00102CCF82020DCF883
:101C1000182022F0F00242EA011123F00A0242EAFF
:101C20000E02CCF81810CCF82020DCF8081041F097
:101C3000570121F02001ADE7D1E901E3C968DCF8E3
:101C4000082043EA0E0322F47F4243EA01211143B4
:101C5000CCF80810DCF8081041F480419AE700BF86
:101C600001229AE780B586B040F200410068C4F2D4
:101C70000001002288420592CDE9032202920192DE
:101C800002D006B080BD00BF43F630000092C4F21F
:101C90000200036843F002030360006800F00200E2
:101CA000009000980220CDE90100059001F5003078
:101CB00001A9CDE90322FEF7FFFB06B080BD0000BD
:101CC00090F83C30012B04BF022070474FEAB2026B
:101CD000032A00F2FF802DE9F043DFE802F003B1B0
:101CE0003F7F00BF036840F200461C6A1A6A24F076
:101CF000020422F001021A621A46D3F804C052F814
:101D000018EF8F6843F48065C4F20106B54244EAD7
:101D1000070405D1CF6824F00C0427F004073C43E6
:101D20000F68B54206D1D1E905582CF440762E4310
:101D300046EA080C2EF073063743C3F804C09F61CF
:101D40004F6809695F631C629F6947F008079F61DC
:101D50009F6927F004079F61B1E000BF036840F26C
:101D600000481C6A1A6A24F4007422F480721A6211
:101D70001A46D3F804C052F81CEF8F6843F480650C
:101D8000C4F20108454544EA072408D1CF6840F26F
:101D9000FF463F0224F4406427EA06063443D1F8A4
:101DA0000090454506D1D1E905562CF440572E4305
:101DB00047EA061C2EF0730747EA0907C3F804C078
:101DC000DF614F680969DF631C62DF6947F008075C
:101DD000DF61DF6927F00407DF6170E0036840F22C
:101DE0000045D3F820C01A6A43F4806722F4805279
:101DF0001A621A465C6852F81C8FD1F800E08E68AF
:101E0000C4F20105AF4204D14D6924F4804444EA90
:101E100085142CF4005747EA063728F4E64646EACC
:101E20000E265C60DE614E6809691E641F62DF6910
:101E300047F40067DF61DF6927F48067DF613DE019
:101E4000036840F200481C6A1A6A24F0200422F059
:101E500010021A621A46D3F804C052F818EF8F68BD
:101E600043F48065C4F20108454544EA071407D1EC
:101E7000CF686FF0400624F0C00406EA071634432A
:101E8000D1F80090454506D1D1E905562CF44067BC
:101E90002E4347EA860C2EF4E64747EA0927C3F8A3
:101EA00004C09F614F6809699F631C629F6947F482
:101EB00000679F619F6927F480679F61090213682B
:101EC000194311600021BDE8F043002280F83C2056
:101ED000084670470121002280F83C2008467047E0
:101EE000002804BF0120704710B5044690F83D005B
:101EF00028B9002084F83C00204600F01FF802209A
:101F000084F83D002068211D00F070FB012084F85A
:101F1000460084F83E0084F83F0084F8400084F8CE
:101F2000410084F8420084F8430084F8440084F8B7
:101F3000450084F83D00002010BD000070470000FF
:101F4000002804BF0120704710B5044690F84100F6
:101F500028B9002084F84000204600F021F8242011
:101F600084F841002068C16821F40051C160204616
:101F700000F0DEFB2068016921F4904101614169B4
:101F800021F02A014161C16841F40051C160002083
:101F90002021606484F8411084F84210606310BD11
:101FA00080B586B044F200410068C4F2000100220E
:101FB00088420592CDE903220292019202D006B036
:101FC00080BD00BF43F630000092C4F202000369F6
:101FD00043F400330361036903F400330093009B6F
:101FE0000092036843F001030360006800F0010001
:101FF000009000980C2001900220CDE902020320FD
:1020000004900720059001F5DE3001A9FEF754FA8F
:1020100006B080BDFEE7000080B582B040F2C0018E
:10202000C2F20001486809784FF0FF3C0DF106024A
:102030000223CDF800C0FEF7CDFB9DF806009DF809
:10204000071000F03F0041EA0020A0F2666000EEB9
:10205000100A9FED041AB8EEC00A20EE010A02B081
:1020600080BD00BFC800483A2DE9F0410546006830
:102070001E46144601F47F0201338FB242D0DDF8D0
:102080001880B2F5803F40F0878040693840C01B1F
:10209000B0FA80F04009844240F0C8804EB924E094
:1020A00040693840C01BB0FA80F04009844240F0DB
:1020B000BD80FEF7D7FAA0EB08012868B142EFD93E
:1020C00041693940C91BB1FA81F149098C42E7D114
:1020D0009BE000BF40693840C01BB0FA80F0400967
:1020E00084424FF0000040F0A280FEF7BBFA28685F
:1020F00041693940C91BB1FA81F149098C42E9D1E2
:1021000083E000BFB2F5803F24D100BF4169394070
:10211000C91BB1FA81F149098C4240F087804169BD
:102120003940C91BB1FA81F149098C4240F07E80E7
:1021300041693940C91BB1FA81F149098C4275D115
:1021400041693940C91BB1FA81F149098C42DDD09E
:102150006CE000BF81693940C91BB1FA81F14909BE
:102160008C4263D181693940C91BB1FA81F14909B7
:102170008C425BD181693940C91BB1FA81F14909AF
:102180008C4253D181693940C91BB1FA81F14909A7
:102190008C42DFD04AE000BF80693840C01BB0FAF3
:1021A00080F04009844241D146B923E0806938403B
:1021B000C01BB0FA80F04009844237D1FEF752FAD2
:1021C000A0EB08012868B142F0D981693940C91BE8
:1021D000B1FA81F149098C42E8D116E080693840B2
:1021E000C01BB0FA80F0400984424FF0000018BFD5
:1021F000BDE8F081FEF736FA286881693940C91BCD
:10220000B1FA81F149098C42E8D1002020212863EC
:1022100085F83D1085F83E00296C41F020012964C5
:1022200085F83C000120BDE8F08100BF0020BDE83A
:10223000F0810000F0B581B0044600681D46436996
:102240008FB203EA0701B94202D1002001B0F0BD0C
:102250004169164601323CD0490512D47EB300BF15
:10226000FEF700FA411B2068B14203D941693940A9
:10227000B9422BD141693940B942E6D0416949059B
:10228000EED5016841F4007101606FF48061416135
:10229000042000212022216384F83D2084F83E1090
:1022A000226C1043206484F83C10012001B0F0BD82
:1022B00041693940B942C8D041694905E1D4FEF7C6
:1022C000D1F9206841693940B942F1D02020E0E7D6
:1022D00041694905D5D441693940B942B5D0416910
:1022E0004905CED441693940B942AED0416949056A
:1022F000C7D441693940B942A7D041694905C0D422
:1023000041693940B942E3D19FE7000070B5044606
:102310000068154650F8143F5A063DD40E4629B9B8
:1023200026E000BF50F8141F490635D40168C906DD
:1023300021D4FEF797F9411B2068B142F2D94169D7
:102340004906EFD400202021206384F83D1084F852
:102350003E00206C40F0200018E000BFFEF782F93C
:10236000206850F8141F4906ECD50168490613D4BB
:102370000168C906F2D56FF010010160002020212C
:10238000206384F83D1084F83E00206C2064002017
:1023900084F83C00012070BD002070BD10B582B0F3
:1023A00040F2C804C2F20004A06821880022FEF7AF
:1023B00053F9606801A904224FF0FF33FFF726F8B4
:1023C000A06821880122FEF747F99DF805109DF8C5
:1023D00004000904020641EA00604FEA90414CF211
:1023E0000002CFF6FF7248BF42EA904100EE101A99
:1023F000B8EEC00AB5EE001A20EE010A02B010BD18
:10240000FEE70000FEE70000704700002DE9F04302
:1024100081B0089C984615460E468146FEF722F983
:10242000201A00EB0804FEF71DF940F20801C2F281
:1024300000010968C1F3CB3161430091D9F8001064
:102440008A683240921BB2FA82F2520995423DD01C
:10245000074618F1010031D0FEF704F9C01BA04275
:1024600038D2009800990028A1F101010091D9F813
:102470000010896808BF044601EA0600801BB0FA14
:1024800080F040098542E7D120E000BF88683040F5
:10249000801BB0FA80F04009854217D08868304030
:1024A000801BB0FA80F0400985420FD08868304028
:1024B000801BB0FA80F04009854207D08868304020
:1024C000801BB0FA80F040098542DFD1002001B0C6
:1024D000BDE8F083D9E900014268B1F5827F22F0BE
:1024E000E00242600BD1D9F80810B1F5004F02D0DC
:1024F000B1F5806F03D1016821F040010160D9F886
:102500002810B1F5005F07D1016821F40051016086
:10251000016841F400510160012089F85100002058
:1025200089F85000032001B0BDE8F0837047000037
:10253000FEF718BB70B594B007AC20463421FDF708
:102540003FFF002543F640000695CDE90455CDE94F
:1025500002550195C4F202000168012241F0805148
:1025600001600068022600F080500190019847F257
:1025700000000195C4F20000016862F38F31016030
:10258000006800F440400190019810200B900F90DB
:102590004FF4A87010900420CDE91106204607964C
:1025A0000A92CDE90D651396FEF7B0FC10B172B634
:1025B000FEE700BF0F20CDE902064FF48050CDE9C1
:1025C000050502A802210495FEF774FB10B172B64E
:1025D000FEE700BF14B070BD4EF68850CEF200008A
:1025E000016841F4700101607047000010B540F6C9
:1025F000FF3E0368C4F2000E40F2004C7045C4F286
:10260000010C25DCB0F1804F2FD040F20042C4F223
:102610000002904229D040F60002C4F2000290422B
:1026200023D041F6FF72C4F20002904227DC7045CD
:102630003ADCB0F1804F5BD040F20042C4F20002BD
:10264000904255D040F60002C4F200024EE000BFB6
:1026500040F60042C4F20002904206D0604504D029
:102660000022C4F201029042DBD14A6823F07003D9
:10267000134341F6FF72C4F200029042D7DD43F6E5
:10268000FF72C4F20102904220DC42F20002C4F266
:10269000000290422CD00022C4F20102904227D0C6
:1026A000604525D028E000BF40F60042C4F2000299
:1026B00090421DD041F60002C4F20002904217D0B1
:1026C00041F60042C4F2000210E000BF44F20002F2
:1026D000C4F2010290420BD044F60002C4F201029F
:1026E000904205D044F20042C4F20102904203D16C
:1026F000CA6823F44073134323F080024B69D1F876
:1027000000E08C681A430260C46240F48062C0F842
:1027100028E0624504BF0969016301214161016943
:10272000C90708BF10BD016921F00101016110BD99
:10273000B0B50446006804F108030ECB05691943DF
:1027400025F440552A4302616269E3691143C26876
:10275000194349F20C639A431143C1604169A2696C
:1027600021F4407141F20043114340F48062C4F20D
:1027700001039A42416103D1FEF762FB02E000BF10
:10278000FEF74AFBE1694FF69C7563681922C0F6B3
:10279000FF75B1F5004FA0FB02011FD15A00DB0FFE
:1027A000FDF796FD48F21F51C5F2EB11A0FB012386
:1027B0005A0905F1805302FB0300322303EBC000EA
:1027C000A0FB01014FF4F87000EA111000EB0210B9
:1027D000C1F34211084421688860B0BD9A009B0F84
:1027E000FDF776FD48F21F51C5F2EB11A0FB012366
:1027F0005A0902FB0500322303EB0010A0FB010184
:10280000F02000EA511000EB0210C1F3431108441C
:1028100021688860B0BD0000FEE700008EB040F285
:102820000049C4F20209FEF7ABF9FFF783FE002767
:1028300043F630000597CDE90377CDE901770A9794
:10284000C4F202000168A9F5806541F0040101604D
:102850000168002201F004010A910A990A970168AF
:10286000102441F080010160016801F080010A91AB
:102870000A990A97016841F001010160016801F0BD
:1028800001010A910A990A97016841F00201016069
:102890000068102100F002000A900A982846FDF70F
:1028A000DBFE484640F20141002240F20148FDF7BC
:1028B000D3FE4FF4005001904FF4041001AECDE967
:1028C000020709F580603146FDF7F6FD0194012409
:1028D00028463146CDE902470497FDF7EDFD48460D
:1028E0003146CDE90184CDE90377FDF7E5FD40F2FE
:1028F000D400A9F5D831C2F2000048F2A0624FF42A
:102900008043C0F2010280E88600C0E90373C0E999
:102910000577C0E90777FDF7ABFE18B172B600BFC7
:10292000FEE700BF40F22810A9F55441C2F20000B2
:102930004FF482724FF4007380E886000A21C0E9E8
:102940000377C0E90573C761C0E90877C0E90A7178
:10295000FEF7CAFC10B172B6FEE700BF40F2700687
:10296000C2F20006A9F500323046002140F8082FD7
:102970004FF6FF720D91CDE90B11CDE90811CDE9AC
:102980000611CDE90411C0E90111C0E903218161FB
:10299000FFF750F810B172B6FEE700BF4FF4805059
:1029A00006F108050A900AA92846FFF78BF818B126
:1029B00072B600BFFEE700BF2846FFF791FA18B1D4
:1029C00072B600BFFEE700BF08A92846FEF7D4FF95
:1029D00010B172B6FEE700BF60200190002701A988
:1029E00028460C22CDE9027705974FF00C08FFF737
:1029F00067F918B172B600BFFEE700BF2846FFF7BF
:102A000031F940F28010A9F5E031C2F200004FF434
:102A1000E13280E88600C0E90377C0E90587C76135
:102A2000FFF78EFA10B172B6FEE700BF9FED158A70
:102A3000B2EE049AFFF7B2FC86ED000AFFF7ECFA5B
:102A400096ED001A0022B4EE481A4846022186ED9F
:102A5000010AF1EE10FAD8BF0122FDF7FDFD96ED57
:102A6000010A0022B4EE490A48460121F1EE10FAAB
:102A7000C8BF0122FDF7F0FD4FF47A70FDF708FDA5
:102A8000D8E700BF0000C842F1EE100A4FF6FF7110
:102A9000C0F2C03120EA010040F04070E1EE100ABF
:102AA0007047000000000000000001020304060758
:102AB000080900000000010203040000E02A0008E9
:102AC000000000201000000028020008F02A000882
:102AD00010000020C00700004802000800000000AD
:102AE00001000000100000000024F40000000000BD
:04000005080001C529
:00000001FF
